:020000040800F2
:10000000A04A0020FD010008252A000899270008C1
:10001000B5280008E50B000859550008000000004D
:100020000000000000000000000000006501000862
:10003000ED0C000800000000A90100080B330008C7
:10004000170200081702000817020008170200082C
:10005000170200081702000817020008170200081C
:10006000170200081702000817020008170200080C
:1000700017020008170200081702000817020008FC
:1000800017020008170200081702000817020008EC
:1000900017020008170200081702000817020008DC
:1000A00017020008170200081702000817020008CC
:1000B00017020008170200081702000817020008BC
:1000C00017020008170200081702000817020008AC
:1000D000170200081702000817020008170200089C
:1000E00017020008170200081702000800000000AD
:1000F0000000000000000000000000000000000000
:1001000000000000000000001702000817020008AD
:10011000170200081702000817020008170200085B
:10012000170200081702000817020008170200084B
:10013000170200080000000000000000170200087D
:10014000170200081702000817020008292A0008F1
:10015000DFF80CD000F0EEF800480047B555000875
:10016000A04A0020224B19680868B0E8F00F80F31D
:100170000988BFF36F8F4FF0000080F311884EF0B5
:100180000D0E70470000000006480068006880F30C
:10019000088862B661B6BFF34F8FBFF36F8F00DF81
:1001A00000BF00BF08ED00E0EFF30980BFF36F8FE1
:1001B0000F4B1A6820E9F00F106008B54FF050009F
:1001C00080F31188BFF34F8FBFF36F8F06F030F8C5
:1001D0004FF0000080F31188BDE8084019680868F6
:1001E000B0E8F00F80F30988BFF36F8F704700BF4E
:1001F0000C180020EFF30580704700000648804788
:1002000006480047FEE7FEE7FEE7FEE7FEE7FEE7FB
:10021000FEE7FEE7FEE7FEE7B53300085101000800
:100220002DE9F05F0546002092469B46884606462B
:10023000814640241BE0284641464746224600F0BE
:1002400020F853465A46C01A914110D31146184619
:10025000224600F060F82D1A67EB01084F4622464F
:100260000120002100F057F817EB00094E41201E35
:10027000A4F10104DFDC484631462A464346BDE886
:10028000F09F202A04DB203A21FA02F00021704777
:1002900021FA02F3D040C2F12002914008431946EE
:1002A000704740EA01039B0703D009E008C9121F09
:1002B00008C0042AFAD203E011F8013B00F8013B20
:1002C000521EF9D27047D2B201E000F8012B491E4C
:1002D000FBD270470022F6E710B513460A460446E3
:1002E0001946FFF7F0FF204610BD421C10F8011B15
:1002F0000029FBD1801A704730B50546002003461F
:1003000000E05B1C934205D2EC5CC85C201A01D172
:10031000002CF6D130BD202A04DB203A00FA02F18D
:10032000002070479140C2F1200320FA03F31943E3
:1003300090407047064C074D06E0E06840F001032E
:1003400094E8070098471034AC42F6D3FFF704FF57
:10035000E46E0008046F000870B58C1810F8015B9B
:1003600015F0070301D110F8013B2A1106D110F84E
:10037000012B03E010F8016B01F8016B5B1EF9D152
:100380002B0705D40023521E0DD401F8013BFAE7D8
:1003900010F8013BCB1A921C03E013F8015B01F843
:1003A000015B521EF9D5A142D8D3002070BD0000D8
:1003B00070B504460025FE48007850BB78212046E1
:1003C00002F07AFA012823D1204602F0F5FE052C2E
:1003D00001D1032518E0012C05D0032C03D0072CF4
:1003E00001D0092C04D1F248007868B905250BE04A
:1003F000042C05D0022C03D0082C01D0062C03D1EC
:10040000EB48007800B90525E8B2302102F054FA33
:10041000D8E37821204602F04FFA012806D1204681
:1004200002F028FE0546142D00D170BD55B12046BE
:1004300002F078FE08B10A20F7E7E8B2302102F0B6
:100440003BFABFE3204602F06DFE08B10A20ECE75C
:100450000A2C6DD2DFE804F06C056DF1EF6CEEED67
:10046000ECEBD449022000F03BFC012805D0D24936
:10047000022000F035FC012816D1CF49032000F0FE
:100480002FFC012805D0CB49032000F029FC0128CE
:100490004ED13021072002F00FFA012848D0302138
:1004A000092002F009FA43E0C249042000F018FCD8
:1004B000012810D1BF49072000F012FC012837D1D4
:1004C0003021032002F0F8F9012831D03021092031
:1004D00002F0F2F92CE0B749052000F001FC0128F8
:1004E00026D1B449092000F0FBFB012816D13021A8
:1004F000022002F0E1F901281AD03021062002F092
:10050000DBF9012814D03021042002F0D5F90128AC
:100510000ED03021082002F0CFF909E0302103206D
:1005200002F0CAF9012803D03021072002F0C4F9F3
:1005300047E3A149092000F0D3FB01281CD1302159
:10054000032002F0B9F9012870D03021012002F017
:10055000B3F901286AD03021072002F0ADF9012853
:1005600064D03021042002F0A7F901285ED03021A8
:10057000062002F0A1F959E08F49062000F0B0FBF7
:10058000012804D13021042002F096F94EE08A4976
:10059000072000F0A5FB80B13021012002F08CF98A
:1005A000012843D03021032002F086F901283DD0F4
:1005B0003021092002F080F938E07F49042000F062
:1005C0008FFB012804D13021062002F075F92DE0BF
:1005D0007949052000F084FB012805D075490520E4
:1005E00000F07EFB012821D17349082000F078FB40
:1005F000012805D06F49082000F072FB012815D1B1
:100600003021012002F058F901280FD030210320B9
:1006100002F052F9012809D03021072002F04CF9EC
:10062000012803D03021092002F046F9C9E25EE238
:10063000EBE177E1E0E067E0FFE75E49022000F0F0
:100640004FFB012805D05C49022000F049FB01283E
:1006500016D15949012000F043FB012805D0554926
:10066000012000F03DFB01284DD13021072002F090
:1006700023F9012847D03021092002F01DF942E07A
:100680004C49062000F02CFB01280FD149490920D4
:1006900000F026FB012836D1302102F00DF90128A7
:1006A00031D03021072002F007F92CE04149052024
:1006B00000F016FB012826D13E49072000F010FB70
:1006C000012816D13021022002F0F6F801281AD0B4
:1006D0003021062002F0F0F8012814D03021042047
:1006E00002F0EAF801280ED03021082002F0E4F8E8
:1006F00009E03021012002F0DFF8012803D0302189
:10070000092002F0D9F85CE22B49032000F0E8FA56
:1007100001280FD1302102F0CFF801286BD0302111
:10072000072002F0C9F8012865D03021092002F025
:10073000C3F860E02049022000F0D2FA012804D179
:100740003021082002F0B8F855E01B49092000F0DC
:10075000C7FA80B13021072002F0AEF801284AD054
:100760003021012002F0A8F8012844D030210920CE
:1007700002F0A2F83FE01049082000F0B1FA012889
:1007800004D13021022002F097F834E00A49052014
:1007900000F0A6FA012805D00649052000F0A0FACD
:1007A000012828D10449062000F09AFA012805E022
:1007B0004F0B0020A8250020B125002005D0F949C5
:1007C000062000F08DFA012815D13021012002F019
:1007D00073F801280FD03021032002F06DF80128B2
:1007E00009D03021072002F067F8012803D030211A
:1007F000092002F061F8E4E1EB49012000F070FA11
:10080000012822D13021032002F056F801281BD004
:100810003021072002F050F8012815D0302109209E
:1008200002F04AF801287CD03021022002F044F87E
:10083000012876D03021042002F03EF8012870D043
:100840003021082002F038F86BE0D749022000F090
:1008500047FA012816D13021032002F02DF8012893
:100860005FD03021092002F027F8012859D030212B
:10087000012002F021F8012853D03021012002F09C
:100880001BF84EE0C849072000F02AFA80B1302159
:10089000072002F011F8012843D03021012002F096
:1008A0000BF801283DD03021032002F005F838E094
:1008B000BD49042000F014FA012804D1302102209F
:1008C00001F0FAFF2DE0B849052000F009FA0128EF
:1008D00005D0B449052000F003FA012821D1B2491E
:1008E000042000F0FDF9012805D0AE49042000F0F5
:1008F000F7F9012815D13021012001F0DDFF012891
:100900000FD03021032001F0D7FF012809D030217A
:10091000072001F0D1FF012803D03021092001F088
:10092000CBFF4EE19F49042000F0DAF9012805D001
:100930009D49042000F0D4F9012816D19A490120DC
:1009400000F0CEF9012805D09649012000F0C8F941
:10095000012859D13021032001F0AEFF012853D0E6
:100960003021092001F0A8FF4EE08E49082000F058
:10097000B7F9012805D08C49082000F0B1F9012809
:100980000FD18849092000F0ABF901283CD1302172
:1009900001F092FF012837D03021032001F08CFFB5
:1009A00032E08049052000F09BF901282CD17D49D7
:1009B000032000F095F9012805D07B49032000F0C1
:1009C0008FF9012816D13021022001F075FF01288E
:1009D0001AD03021062001F06FFF012814D03021F9
:1009E000042001F069FF01280ED03021082001F019
:1009F00063FF09E03021012001F05EFF012803D0F0
:100A00003021092001F058FFDBE06749012000F0A8
:100A100067F9012810D13021072001F04DFF01288E
:100A200064D03021032001F047FF01285ED030213F
:100A3000092001F041FF59E05B49042000F050F922
:100A4000012804D13021022001F036FF4EE0564942
:100A5000032000F045F980B13021092001F02CFF7E
:100A6000012843D03021012001F026FF01283DD08C
:100A70003021072001F020FF38E04B49022000F030
:100A80002FF9012804D13021042001F015FF2DE0B9
:100A90004549052000F024F9012805D041490520E9
:100AA00000F01EF9012821D13F49022000F018F979
:100AB000012805D03B49022000F012F9012815D188
:100AC0003021012001F0F8FE01280FD03021032051
:100AD00001F0F2FE012809D03021072001F0ECFEE0
:100AE000012803D03021092001F0E6FE69E02D49FC
:100AF000082000F0F5F8012805D02B49082000F067
:100B0000EFF8012816D12849072000F0E9F801285C
:100B100005D02449072000F0E3F8012850D1302106
:100B2000012001F0C9FE01284AD03021032001F044
:100B3000C3FE45E01B49062000F0D2F801280FD182
:100B40001849032000F0CCF8012839D1302101F0F8
:100B5000B3FE012834D03021072001F0ADFE2FE094
:100B60001049052000F0BCF8012829D10D4900F0FA
:100B7000B7F801281AD13021022001F09DFE01288A
:100B80001ED03021062001F097FE012818D0302118
:100B9000042001F091FE012812D03021082001F03C
:100BA0008BFE0DE0A8250020B12500203021032078
:100BB00001F082FE012803D03021072001F07CFEE5
:100BC00000BF00BF06480078401C05490870084671
:100BD0000078052801D11E2027E4282025E4000004
:100BE0004F0B002000BFFEE70346042B15D007DCA7
:100BF0007BB1012B0ED0022B0DD0032B12D10BE0B9
:100C0000202B0BD0212B0AD0222B09D0232B09D14A
:100C100007E008E007E006E005E004E003E002E0AA
:100C200001E000E000BF00BF0020704700207047D7
:100C300010B50848084908600022084906480068BD
:100C400002F0B1FD06490448006802F0A5FD00204D
:100C500010BD0000BC280020E41700206B350020E8
:100C60002B35002070B505460C4600200D49086064
:100C700029460D482268FFF714FB0023094A0A4958
:100C80000A48006805F000FD28B9074908482268AD
:100C9000FFF707FB03E00748006802F059FD00205A
:100CA00070BD0000F8170020AB340020380B002086
:100CB000EB340020E417002070B504460D460026F2
:100CC0002A4621460548006802F06DFD0348006889
:100CD00002F0EDFD0646304670BD0000E41700202E
:100CE00002460020531EDAB2885C70477047704796
:100CF00070B50A480468001D0568001D0668344484
:100D000054B108220649204601F048FD0422044956
:100D10001031284601F042FD70BD0000E8F7FF1FCA
:100D20003212002070B5044600F0A6F906462546AA
:100D3000681C10B104480078054400BF00F09CF91D
:100D4000801BA842FAD370BD081800202DE9F8478F
:100D50000346002294466EE14FF0010808FA02F4BF
:100D6000D1F8008008EA0400A0427DD1DFF8DCA2BF
:100D7000D1F80480A8EB0A09D0453AD014DCB8F1C8
:100D8000030F50D009DCB8F1000F31D0B8F1010FDA
:100D90001CD0B8F1020F49D120E0B8F1110F18D0E2
:100DA000B8F1120F42D11EE0B9F5881F25D006DC3C
:100DB000B9F5803F20D0B9F5801F37D11AE0B9F5D9
:100DC000001F18D0B9F5041F30D117E0D1F80CC0BE
:100DD0002DE0D1F80C8008F1040C28E0D1F80C804B
:100DE00008F1080C23E0D1F80C8008F10C0C1EE08F
:100DF00000BF00BF00BF00BF00BF00BFD1F8088028
:100E0000B8F1000F02D14FF0040C0BE0D1F80880CC
:100E1000B8F1010F03D14FF0080C1C6102E04FF054
:100E2000080C5C6103E04FF0000C00E000BF00BF65
:100E3000FF2801D8984601E003F104084646FF2840
:100E400002D84FEA820803E0A2F108084FEA8808B6
:100E50004746D6F800804FF00F0909FA07F928EA4B
:100E600009080CFA07F900E088E048EA0908C6F822
:100E70000080D1F8048008F08058B8F1805F7DD1FF
:100E800000BFDFF8CC81D8F8188048F00108DFF8FF
:100E9000C091C9F81880C846D8F8188008F0010831
:100EA000CDF8008000BF00BF4FEAB9384FEA920981
:100EB00058F829504FEA82784FEA18794FF00F0816
:100EC00008FA09F825EA0805DFF88881434502D1C8
:100ED0004FF0000816E0DFF88081434502D14FF063
:100EE00001080FE0DFF87481434502D14FF002089A
:100EF00008E0DFF86C81434502D14FF0030801E0C0
:100F00004FF004084FEA82794FEA197908FA09F894
:100F100048EA0505DFF84C814FEA920948F8295064
:100F2000D1F8048008F48038B8F5803F0AD1DFF8A2
:100F30003881D8F8008048EA0008DFF82C91C9F819
:100F4000008009E0DFF82081D8F8008028EA000856
:100F5000DFF81491C9F80080D1F8048008F4003853
:100F6000B8F5003F10D1DFF8008108F10408D8F887
:100F7000008048EA0008DFF8F09000E05AE009F14C
:100F80000409C9F800800DE0DFF8DC8008F10408EE
:100F9000D8F8008028EA0008DFF8CC9009F10409AD
:100FA000C9F80080D1F8048008F48018B8F5801FD3
:100FB0000ED1DFF8B48008F10808D8F8008048EABC
:100FC0000008DFF8A49009F10809C9F800800DE0D5
:100FD000DFF8948008F10808D8F8008028EA0008B3
:100FE000DFF8849009F10809C9F80080D1F804807D
:100FF00008F40018B8F5001F0ED1DFF86C8008F176
:101000000C08D8F8008048EA0008DFF85C9009F185
:101010000C09C9F800800DE0DFF84C8008F10C08DD
:10102000D8F8008028EA0008DFF83C9009F10C09A4
:10103000C9F80080521CD1F8008028FA02F8B8F1F3
:10104000000F7FF489AEBDE8F887000000001110A2
:101050000010024000080140000C01400010014057
:101060000014014008000140000401400AB1016180
:1010700001E00B04036170470148006870470000FD
:101080000018002003480068034909780844014912
:1010900008607047001800200818002010B50848A4
:1010A000006840F0100006490860032000F0A2F834
:1010B0000F2000F007F800F02BF8002010BD000012
:1010C0000020024070B504460E4800784FF47A7153
:1010D000B1FBF0F00C490968B1FBF0F5284601F0CE
:1010E00041FB08B1012070BD102C07D2002221461F
:1010F000501E00F041F80548046001E00120F2E7CD
:101100000020F0E708180020FC1700200418002039
:1011100008B500BF0F48806940F001000D498861A3
:101120000846806900F00100009000BF00BF00BFCA
:101130000846C06940F08050C8610846C06900F0A8
:101140008050009000BF00BF00220F21901E00F0D1
:1011500013F808BD0010024001460846002809DBCC
:1011600000F01F0301229A4043099B0003F1E02392
:10117000C3F8002100BF70472DE9F05F80460D469F
:101180001646002704F0EAF9074639462A46334650
:1011900001F00700C0F1070ABAF1040F02D94FF0BD
:1011A000040A01E0C0F1070AD14600F1040ABAF1CD
:1011B000070F02D24FF0000A01E0A0F1030AD44663
:1011C0004FF0010A0AFA09FAAAF1010A0AEA020A28
:1011D0000AFA0CFA4FF0010B0BFA0CFBABF1010B06
:1011E0000BEA030B4AEA0B042146404604F0BEF921
:1011F000BDE8F09F00BF00F00702064B19684FF6EC
:10120000FF031940044B0B4343EA0221014B1960D1
:1012100000BF70470CED00E00000FA0502461068C0
:10122000416200207047F0B5034615461868446ACD
:1012300021B944EA05401E68B06219E01868806A66
:1012400004EB1044002208E0186800F5827050F8A2
:10125000220004EB1044501CC2B2481E9042F3D846
:1012600044EA0547186800F582704E1E40F8267063
:101270000020F0BD10B50446D4F8FC0302F0F9FEDE
:1012800010BD70B504460D46C5EBC50304F13C0125
:1012900001EB8301CA682946D4F8FC0302F016FE6C
:1012A00070BD70B504460D46C5EBC50304F5FE716F
:1012B00001EB8301CA682946D4F8FC0302F086FEDC
:1012C00070BD10B50446D4F8FC0302F0D5FE10BD85
:1012D00070B504460E4606F0800080280AD106F05C
:1012E0000F00C0EBC00104F13C0000EB81050120C0
:1012F000687009E006F00F00C0EBC00104F5FE7055
:1013000000EB81050020687006F00F00287000BF18
:1013100094F8BC03012801D1022070BD012084F89B
:10132000BC0300BF2946206803F082FB00BF0020F9
:1013300084F8BC0300BF00BFEFE770B504460E465B
:1013400006F00F006168884201D9012070BD06F0E7
:10135000800080280AD106F00F00C0EBC00104F124
:101360003C0000EB81050120687009E006F00F00E9
:10137000C0EBC00104F5FE7000EB81050020687031
:101380000020A87006F00F00287000BF94F8BC037E
:10139000012801D10220D9E7012084F8BC0300BF55
:1013A0002946206803F08AFD00BF002084F8BC03B2
:1013B00000BF00BFCAE7024601F00F00C0EBC00348
:1013C00002F5FE7000EB8300806970472DE9F0475D
:1013D00005460E4690461F464FF0000906F0800075
:1013E00080280AD106F00F00C0EBC00105F13C00D7
:1013F00000EB81040120607009E006F00F00C0EBF3
:10140000C00105F5FE7000EB81040020607006F05D
:101410000F002070C4F80880E770607808B1207869
:10142000E080022F01D10020207100BF95F8BC039D
:10143000012802D10220BDE8F087012085F8BC0315
:1014400000BF2146286803F021FA00BF002085F87C
:10145000BC0300BF4846EEE72DE9F04105460E46C5
:101460001746984606F00F00C0EBC00105F5FE7068
:1014700000EB8104E760C4F814800020A061607074
:1014800006F00F00207006F00F0020B921462868F2
:1014900003F01CFC03E02146286803F0A3FD0020B4
:1014A000BDE8F08170B504460D4605F00F00616897
:1014B000884201D9012070BD05F0800080280AD142
:1014C00005F00F00C0EBC00104F13C0000EB810609
:1014D0000120707007E0C5EBC50104F5FE7000EB5C
:1014E0008106002070700120B07005F00F00307090
:1014F00000BF94F8BC03012801D10220DBE70120E2
:1015000084F8BC0300BF3146206803F01EFD05F0DF
:101510000F0020B904F57171206803F0A3FC00BF2F
:10152000002084F8BC0300BF00BFC4E72DE9F041F0
:1015300005460E461746984606F00F00C0EBC00160
:1015400005F13C0000EB8104E760C4F81480002042
:10155000A0610120607006F00F00207006F00F00FF
:1015600020B92146286803F0B1FB03E02146286832
:1015700003F038FD0020BDE8F0812DE9FE4F044660
:1015800020680290029D206803F0CEFE002879D1E9
:10159000206803F008FF08B9BDE8FE8F206803F05B
:1015A00002FF00F00200022805D12068406900F027
:1015B000020021684861206803F0F5FE00F4002075
:1015C000B0F5002F50D10026206803F0BCFE824603
:1015D00047E00AF00100E8B3F1B2206803F0D6FE5C
:1015E000804608F0010048B1012105F5306000EBAC
:1015F000461081603146204601F044FA08F00800A8
:10160000082809D13146204601F016FA082105F5CF
:10161000306000EB4610816008F01000102805D102
:10162000102105F5306000EB4610816008F02000C5
:10163000202805D1202105F5306000EB461081609F
:1016400008F40050B0F5005F08D14FF4005105F5E3
:10165000306000E002E000EB46108160761C4FEA4B
:101660005A0ABAF1000FB4D1206803F09CFE00F4CE
:101670008020B0F5802F61D1206803F05AFE8246A9
:10168000002658E0D0E10AF00100F0B3F1B2206882
:1016900003F063FE804608F00100B8B106F00F01C8
:1016A00001208840019040F634004159019821EA18
:1016B000000040F634014851012105F5106000EBAF
:1016C00046108160F1B22046FFF7DBFD08F008000C
:1016D000082805D1082105F5106000EB461081604F
:1016E00008F01000102805D1102105F5106000EB5E
:1016F0004610816008F04000402805D1402105F5E2
:10170000106000EB4610816000E011E008F002007C
:10171000022805D1022105F5106000EB461081601A
:1017200008F08000802803D13146204601F0E0F91E
:10173000761C4FEA5A0ABAF1000FA4D1206803F0D0
:1017400032FE00F00040B0F1004F10D140F604002E
:10175000405920F0010140F604004151204600F0BC
:101760007DFA2068406900F00040216848612068E7
:1017700003F019FE00F40060B0F5006F0ED140F6E2
:101780000800405900F0010010B1204600F0B2FA04
:101790002068406900F4006021684861206803F017
:1017A00002FE00F48050B0F5805F71D140F6040075
:1017B000405920F0010140F60400415110212068F9
:1017C00003F08AFD002726E04FF67F3105F5106013
:1017D00000EB4710816005F5106000EB47100068D2
:1017E00020F4001105F5106000EB471001604FF682
:1017F0007F3105F5306000EB4710816005F5306002
:1018000000EB4710006820F4001105F5306000EB94
:10181000471001607F1C6068B842D5D840F61C00B4
:10182000405940F0011140F61C004151206B70B14D
:10183000D5F8840840F00B01C5F8841840F6440040
:10184000405940F00B0140F6440041510FE040F692
:101850001400405942F22B01084340F6140148514C
:10186000081F405940F00B014FF401604151D5F879
:10187000000820F4FE60C5F8000804F571712068C6
:1018800003F0F0FA2068406900F480502168486154
:10189000206803F088FD00F40050B0F5005F17D118
:1018A000206803F05BF8206803F02EFDE06000F094
:1018B00009FC0090227B2068009903F0C3FD2046BC
:1018C00000F0BAF92068406900F4005021684861CE
:1018D000206803F068FD00F01000102846D1206851
:1018E000806920F01000216888610298D0F820906B
:1018F00009F00F00C0EBC00104F5FE7000EB810B96
:10190000C9F3434002281AD147F6F07009EA0000F3
:1019100030B3C9F30A12DBF80C10029803F048FD4B
:10192000C9F30A11DBF80C000844CBF80C00C9F32A
:101930000A11DBF818000844CBF8180010E0C9F3CE
:10194000434006280CD1082204F57171029803F077
:101950002FFDC9F30A11DBF818000844CBF8180072
:101960002068806940F0100021688861206803F0D9
:101970001AFD00F00800082808D1204600F075F98B
:101980002068406900F0080021684861206803F081
:101990000AFD00F48010B0F5801F0AD10026314600
:1019A000204600F043F82068406900F48010216868
:1019B0004861206803F0F7FC00F40010B0F5001F48
:1019C0000AD100263146204600F039F820684069E7
:1019D00000F4001021684861206803F0E4FC00F086
:1019E0008040B0F1804F08D12046FFF743FC2068CB
:1019F000406900F0804021684861206803F0D3FC12
:101A000000F0040004280FD12068D0F8049009F0F9
:101A10000400042802D12046FFF753FC20684068E8
:101A200040EA09002168486000BFB5E570B504468A
:101A30000D462946D4F8FC0302F07EFB70BD70B55C
:101A400004460D462946D4F8FC0302F078FB70BD2D
:101A500070B58AB0044614B901200AB070BD26687A
:101A600094F8BD0328B9002084F8BC03204600F098
:101A7000A3F8032084F8BD03F06B00F4807008B96C
:101A800000212161206803F019F9282204F11001D6
:101A90006846FEF706FC94E80F0002F073FF20B1E1
:101AA000022084F8BD030120D7E70021206803F05D
:101AB00090FC002531E00121C5EBC50204F13C009A
:101AC00000EB82004170C5EBC50104F13C0000F859
:101AD0002150C5EBC50100EB8100C5800021C5EB9D
:101AE000C50204F13C0000EB8200C170C5EBC502E9
:101AF00004F13C0000EB82008160C5EBC50204F1FB
:101B00003C0000EB8200C160C5EBC50204F13C0063
:101B100000EB82004161681CC5B26068A842CAD867
:101B200000252AE00021C5EBC50204F5FE7000EB9C
:101B300082004170C5EBC50104F5FE7000F821502C
:101B40000021C5EBC50200EB8200C170C5EBC502E8
:101B500004F5FE7000EB82008160C5EBC50204F560
:101B6000FE7000EB8200C160C5EBC50204F5FE709B
:101B700000EB82004161681CC5B26068A842D1D800
:101B8000282204F110016846FEF78BFB94E80F0051
:101B900002F0D0FF20B1022084F8BD0301205CE7F1
:101BA000002084F83800012084F8BD03206802F08A
:101BB000B1FF002051E7000010B586B004460020B8
:101BC00002900390049005902068B0F1A04F2CD1B2
:101BD00000BF1748806940F0040015498861084635
:101BE000806900F00400019000BF00BF481502901A
:101BF00000200390049002A90E48FFF7A7F800BF49
:101C00000B48406940F480500949486108464069E2
:101C100000F48050019000BF00BF00220521432046
:101C2000FFF7AAFA4320FFF797FA06B010BD0000AD
:101C3000001002400008014070B504460125E0682C
:101C4000022801D0FFF753F82946D4F8FC0302F02C
:101C5000F3FAD4F8FC0302F0A5FA70BD10B50446FF
:101C6000D4F8FC0302F0CCFA10BD10B50446D4F849
:101C7000FC0302F0D0FA10BD70B504460D4600BF5B
:101C800094F8BC03012801D1022070BD012084F822
:101C9000BC0300BF84F838502946206803F0B4FB29
:101CA00000BF002084F8BC0300BF00BFEDE710B503
:101CB000044604F57171D4F8FC0302F0D4FA10BDA7
:101CC00010B5044600BF94F8BC03012801D10220DE
:101CD00010BD012084F8BC0300BF206802F00AFF99
:101CE000206803F0DBFA00BF002084F8BC0300BFCB
:101CF00000BFEDE710B50446D4F8FC0302F00CFB7E
:101D00002068D0F8000E40F001002168C1F8000EF4
:101D1000206A28B10348006840F0060001490860C5
:101D200010BD000010ED00E02DE9F8430446002648
:101D300000250027207800F0010000286ED0A8467A
:101D40007948C06900F0805078B900BF7648C06912
:101D500040F080507449C8610846C06900F0805066
:101D6000009000BF00BF4FF001087048006800F409
:101D70008070B8B96D48006840F480706B490860A5
:101D8000FFF77AF9064607E0FFF776F9801B64282B
:101D900002D90320BDE8F8836448006800F480702D
:101DA0000028F1D06048006A00F440752DB3A08887
:101DB00000F44070A84220D05B48006A20F44075CF
:101DC00001205B490860002008605748056205F063
:101DD000010090B1FFF750F9064608E0FFF74CF913
:101DE000801B41F28831884201D90320D2E74E4856
:101DF000006A00F002000028F0D04B48006A20F48E
:101E000040706168084348490862B8F1010F04D185
:101E10000846C06920F08050C86100BF207800F0FB
:101E20000200022807D14048406820F44040A168E1
:101E300008433D494860207800F00400042807D199
:101E40003948C06A20F40030E16808433649C86266
:101E5000207800F00800082807D13348C06A20F431
:101E60008020216908433049C8622F48C06A00F4C5
:101E7000003020B92C48C06A00F4802000B101274E
:101E8000012F41D12848006800F0805090BB2648BF
:101E9000006800F0806040B12348C06A00F0F001A3
:101EA000A069814201D0012074E71F48C06A20F078
:101EB000F000A16908431C49C8620846C06A20F4C2
:101EC0007040616908431849C862012019490867D0
:101ED000FFF7D2F8064606E0FFF7CEF8801B64282D
:101EE00001D9032056E71048006800F00050002890
:101EF000F2D009E0FFE70C48C06A00F47040616965
:101F0000884201D0012045E7207800F01000102819
:101F100007D10548406820F48000E1690843024980
:101F20004860002036E700000010024000700040CA
:101F3000400442420000424270B504460D460CB9CE
:101F4000012070BD5A48006800F00700A8420ED278
:101F50005748006820F007002843554908600846A4
:101F6000006800F00700A84201D00120E9E72078CE
:101F700000F0020002281DD1207800F0040004289F
:101F800005D14C48406840F4E0604A4948602078F8
:101F900000F00800082805D14648406840F4605029
:101FA000444948604348406820F0F000A168084375
:101FB00040494860207800F0010078B3606801284B
:101FC00006D13C48006800F4003090B90120B8E721
:101FD0006068022806D13748006800F0007040B9F8
:101FE0000120AEE73348006800F0020008B9012084
:101FF000A7E73048406820F00300616808432D4996
:102000004860FFF739F8064609E0FFF735F8801B0E
:1020100041F28831884202D9032092E707E025483F
:10202000406800F00C006168B0EB810FEDD12048F2
:10203000006800F00700A8420ED91D48006820F093
:10204000070028431A4908600846006800F00700A6
:10205000A84201D0012074E7207800F00400042891
:1020600007D11448406820F4E060E1680843114952
:102070004860207800F00800082808D10D48406822
:1020800020F46050216940EAC1000A49486000F02C
:102090001FF808494968C1F30311074A515CC84059
:1020A0000649086006480068FFF70CF8002048E77A
:1020B00000200240001002408C6E0008FC17002037
:1020C000041800200148006870470000FC17002039
:1020D0002DE9F04F8BB03CA2D2E901311068D268F3
:1020E000CDE908310A9207903BA3D3E90020D3E958
:1020F000021304AC0BC403924FF00009CB46CA464E
:10210000002400200290019000903748D0F80490FD
:1021100009F00C0000284FD0042802D008284AD12A
:1021200002E0324802904AE007A8C9F38341445CC8
:1021300009F48030C0B32C48C06A00F00F0003A936
:1021400011F800B02848C06A00F4803008B326486F
:10215000C06AC0F30310401C01902348C06AC0F35A
:102160000320801C00900198A0FB0B5006461F49DD
:102170000098A1FB00210023A2FB047C01FB04C109
:1021800002FB03112A4633463846FEF749F88246D9
:1021900003E016486043B0FBFBFA9DF82900A0421B
:1021A00006D14FEA5A0A03E0FFE7114804FB00FAA0
:1021B000CDF808A003E000BF0E48029000BF00BFAA
:1021C00002980BB0BDE8F08F00000405060708096F
:1021D00000000000000D00000102030405060708CE
:1021E000090A0B0C0D0E0F10001002400024F40021
:1021F00000093D0000127A00F8B504460CB9012030
:10220000F8BD207800F00100002878D0FD48406833
:1022100000F00C0004280CD0FA48406800F00C00D4
:10222000082811D1F748406800F48030B0F5803FAD
:102230000AD1F448006800F4003000285FD0A0689C
:1022400000285CD10120DBE700BFA068B0F5803F2B
:1022500006D1EC48006840F48030EA49086028E084
:10226000A06858B9E748006820F48030E549086064
:102270000846006820F4802008601AE0A068B0F5E5
:10228000A02F0BD1DF48006840F48020DD490860B2
:102290000846006840F4803008600AE0D9480068C9
:1022A00020F48030D74908600846006820F4802078
:1022B000086000BFA06888B1FEF7DEFE054606E0B4
:1022C000FEF7DAFE401B642801D9032098E7CD48C9
:1022D000006800F400300028F2D010E0FEF7CCFED9
:1022E000054606E0FEF7C8FE401B642801D903201E
:1022F00086E7C448006800F400300028F2D1207856
:1023000000F00200022857D1BE48406800F00C00DF
:1023100050B1BC48406800F00C00082818D1B948FA
:10232000406800F4803098B9B648006800F00200B8
:1023300020B16069012801D0012061E7B14800683F
:1023400020F0F800A16940EAC100AE49086033E01E
:102350006069E8B10120AC490860FEF78DFE0546D2
:1023600006E0FEF789FE401B022801D9032047E75B
:10237000A448006800F002000028F2D0A1480068DC
:1023800020F0F800A16940EAC1009E49086013E00E
:1023900000209D490860FEF76FFE054606E0FEF747
:1023A0006BFE401B022801D9032029E795480068ED
:1023B00000F002000028F2D1207800F00800082880
:1023C0002DD1E069B8B1012090490860FEF754FEB4
:1023D000054606E0FEF750FE401B022801D9032007
:1023E0000EE78848406A00F002000028F2D0012081
:1023F00000F0D0FD13E0002084490860FEF73CFEA9
:10240000054606E0FEF738FE401B022801D90320EE
:10241000F6E67C48406A00F002000028F2D12078FD
:1024200000F00400042873D100277648C06900F04A
:10243000805070B900BF7348C06940F08050714946
:10244000C8610846C06900F08050009000BF00BF1E
:1024500001276F48006800F48070B0B96C480068CC
:1024600040F480706A490860FEF706FE054606E003
:10247000FEF702FE401B642801D90320C0E6644831
:10248000006800F480700028F2D000BF20690128A5
:1024900006D15C48006A40F001005A49086227E012
:1024A000206958B95748006A20F001005549086270
:1024B0000846006A20F00400086219E02069052837
:1024C0000BD15048006A40F004004E4908620846AB
:1024D000006A40F0010008620AE04A48006A20F001
:1024E0000100484908620846006A20F004000862BA
:1024F00000BF2069A0B1FEF7BFFD054609E0FEF769
:10250000BBFD401B41F28831884202D9032077E6A7
:1025100022E03C48006A00F002000028EFD012E000
:10252000FEF7AAFD054608E0FEF7A6FD401B41F2B6
:102530008831884201D9032062E63248006A00F0FF
:1025400002000028F0D1012F05D12E48C06920F0EB
:1025500080502C49C86100BFE06AA0B32948406898
:1025600000F48030B0F5803F0ED12648406800F07E
:102570000C00082808D12348C06A00F48030B0F568
:10258000803F01D101203BE6E06A022850D11D487E
:10259000006800F0805040B11A48C06A00F0F001B5
:1025A000606B814201D001202AE60020164988662E
:1025B000FEF762FD054607E0FEF75EFD401B64285E
:1025C00002D903201CE64DE00E48006800F00060D0
:1025D0000028F1D10B48C06A20F0F000616B08437D
:1025E0000849C8620846C06A20F47060216B08433D
:1025F0000449C862012004498866FEF73DFD05468E
:102600000FE00000001002400000424280044242FD
:1026100000700040FEF730FD401B642801D9032004
:10262000EEE54E48006800F000600028F2D019E0A6
:102630004A48C06A20F480304849C86200204849AE
:102640008866FEF719FD054606E0FEF715FD401BFE
:10265000642801D90320D3E54048006800F00060F9
:102660000028F2D1206AE0B33C48406800F00C003A
:1026700008285ED0206A022846D100203849086622
:10268000FEF7FAFC054606E0FEF7F6FC401B0228C2
:1026900001D90320B4E53148006800F0007000283B
:1026A000F2D1606AB0F5803F0DD12C48C06A6168F4
:1026B00008432A49C8620846C06A20F00F00E16852
:1026C00008432649C862D4E90901084323494968F7
:1026D00021F474110843214948600120204908660B
:1026E00000E038E0FEF7C8FC054606E0FEF7C4FC53
:1026F000401B022801D9032082E51848006800F039
:1027000000700028F2D026E0002015490866FEF788
:10271000B3FC054606E0FEF7AFFC401B022801D9DA
:1027200003206DE50D48006800F000700028F2D12C
:1027300011E0206A012800D162E50848466806F4E5
:102740008031606A814204D106F47011A06A81422E
:1027500001D0012054E5002052E5000000100240A5
:102760000000424270B504462546681EB0F1807FE5
:1027700001D301200FE0681E4FF0E02148610F21D6
:102780004FF0FF3002F0F2FE00204FF0E0218861B0
:1027900007200861002070BD00BFFEE730B50B4682
:1027A000002100BF16E00A24B4EB107F05D93024C5
:1027B00004EB107403F8114005E0412404EB10749D
:1027C0000A3C03F81140000100254C00641C1D5513
:1027D0004C1CE1B29142E6DB30BD000000B585B093
:1027E0000020019002900390049000BF1C48806973
:1027F00040F020001A4988610846806900F02000F6
:10280000009000BF00BF00BF0846806940F0100084
:1028100088610846806900F01000009000BF00BF8A
:1028200000BF0846806940F004008861084680695E
:1028300000F00400009000BF00BF002203210948FF
:10284000FEF714FC03200190012002900020039069
:102850000220049001A90348FEF778FA05B000BDF4
:10286000001002400010014010B500220D490E4832
:1028700001F0EDFA08B1FEF73AFA0C490A4801F006
:1028800081FD08B1FEF733FA0949074800F07DFFE2
:1028900008B1FEF72CFA044801F03EFE08B1FEF73D
:1028A00026FA10BDFC110020BC280020A82300201F
:1028B000E817002000BFFEE72DE9F04781460E46ED
:1028C000A9F10100C4B2304810F8147000EB4400C4
:1028D00090F80180302E1FD12C48005D012818D0BF
:1028E0002B48005D012812D001202949085508EB2A
:1028F0008800284901EB4000C65501252649484675
:1029000000F05CFB3021204600F0BCFC39E00025E3
:1029100037E04FF0FF3534E0782E24D11C48005DBD
:1029200001281DD01948005D012817D00120174942
:10293000085508EB8800174901EB4000C6550125F2
:10294000154A1649484600F02BF81449484600F04D
:1029500035FB7821204600F095FC12E0002510E0C0
:102960004FF0FF350DE0202E0BD100200749085510
:102970000749085508EB8800064901EB4000C65599
:1029800001252846BDE8F0873D0B0020B125002039
:10299000A8250020F50B0020BB250020D425002011
:1029A0002DE9F04380460C4615464FF0000931E012
:1029B00000262AE0A05D404526D100270EE0E05D1C
:1029C0001749FEF78DF9012807D1002002E0002108
:1029D0002154401C0328FADB02E07F1C032FEEDBAE
:1029E00000BF002004E0295C01B903E0ED1C401C9D
:1029F0000828F8DB00BF002004E0215C29540021F6
:102A00002154401C0328F8DB761C032ED2DBE41C87
:102A100009F10109B9F1080FCADBBDE8F083000034
:102A2000A82500207047000010B50248FEF7A5FD5C
:102A300010BD0000802B00202DE9F04707460C4612
:102A40003D682E46D5F8408006F5306000EB441016
:102A5000D0F808900A4880450BD109F40040B0F541
:102A6000004F06D14FF4004106F5306000EB4410F2
:102A700081603846FFF71BF90020BDE8F0870000B1
:102A80000A31544F2DE9F04707460C463E6835465B
:102A9000D6F8409005F5306000EB4410D0F808807F
:102AA000124881451BD108F40040B0F5004F07D112
:102AB0004FF4004105F5306000EB4410816012E0F6
:102AC00008F02000202805D1202105F5306000EB1A
:102AD00044108160E1B23846FEF7E3FB03E0E1B267
:102AE0003846FEF7DEFB0020BDE8F0870A31544F80
:102AF0002DE9F05F07460E46D7F80090C846C6EBB2
:102B0000C60107F13C0000EB8104D4E905108842BE
:102B100002D90120BDE8F09FD4E90501451AA0685B
:102B2000A84200D2A568E81C4FEA900A15E0D4E953
:102B30000501451AA068A84200D2A568E81C4FEA22
:102B4000900AABB2F2B24846E16802F0EDFCE068F0
:102B50002844E060A0692844A06108F5106000EBFB
:102B60004610806980B2504506D3D4E905108842EA
:102B700002D260690028DAD1D4E9050188420ED872
:102B800006F00F01012000FA01FB40F6340050F876
:102B9000080020EA0B0040F6340141F8080000204C
:102BA000B8E700002DE9F05F81464FF0000AD046FB
:102BB000C34699F800004138C6B2002421E006EB74
:102BC000460000EBC6001C4901EB800050F8247061
:102BD0003846FDF78AFB05462A4639464846FDF742
:102BE0008BFB68B9B8F1000F04D105F0FF0804F0C1
:102BF000FF0B05E0A84503DA05F0FF0804F0FF0B22
:102C0000641C06EB460000EBC6000B4901EB80009C
:102C100050F824000028D2D1B8F1000F0AD006EBFA
:102C2000460000EBC6000549084410F80BA05046CA
:102C3000BDE8F09F5046FBE700000020780400202C
:102C400070B5044600250C2C6FD2DFE804F0EF1CB1
:102C5000334A617990A7BED5EC0600F0C7F93C2253
:102C6000C249C348FDF71DFB2022C249C048403875
:102C7000FDF717FB00233246BD494039BE480068C6
:102C800003F02EFCD3E0BD48007801280DD0BC48ED
:102C90000078012804D00120FDF78AFB054608E0F2
:102CA0002021B448FEF708F803E02021B148FEF7E0
:102CB00003F8BCE0B148C07801280DD0B048C07816
:102CC000012804D00420FDF773FB054608E020210D
:102CD000A848FDF7F1FF03E02021A648FDF7ECFF2F
:102CE000A5E0A648807901280DD0A5488079012863
:102CF00004D00720FDF75CFB054608E020219D4835
:102D0000FDF7DAFF03E020219A48FDF7D5FF8EE0BA
:102D10009A48407801280ED099484078012805D07B
:102D20000220FDF745FB054609E07FE020219148A0
:102D3000FDF7C2FF03E020218E48FDF7BDFF76E0DE
:102D40008E48007901280DD08D480079012804D0E3
:102D50000520FDF72DFB054608E020218548FDF7FD
:102D6000ABFF03E020218348FDF7A6FF5FE0834827
:102D7000C07901280DD08248C079012804D00820EC
:102D8000FDF716FB054608E020217A48FDF794FF81
:102D900003E020217748FDF78FFF48E077488078EF
:102DA00001280DD076488078012804D00320FDF753
:102DB000FFFA054608E020216E48FDF77DFF03E09D
:102DC00020216C48FDF778FF31E06C4840790128FC
:102DD0000DD06B484079012804D00620FDF7E8FAB1
:102DE000054608E020216348FDF766FF03E0202147
:102DF0006048FDF761FF1AE06048007A01280DD0B5
:102E00005F48007A012804D00920FDF7D1FA054671
:102E100008E020215748FDF74FFF03E020215548E7
:102E2000FDF74AFF03E000F0E1F800E000BF00BF5B
:102E3000002D7DD00A2D04D0142D54D01E2D7ED10E
:102E400028E03C2249494A48FDF72BFA1C224D490B
:102E500047484038FDF725FA0023324644494039B7
:102E60004548006803F03CFB00F0C0F83C223F49B5
:102E70003F48FDF716FA20223E493D484038FDF70D
:102E800010FA002332463A4940393B48006803F0C3
:102E900027FB68E03C2235493548FDF702FA182245
:102EA000394933484038FDF7FCF9002332463049B0
:102EB00040393148006803F013FB00F097F83C22DA
:102EC0002A492B48FDF7EDF920222A4928484038A5
:102ED000FDF7E7F9002332462549403926480068C6
:102EE00003F0FEFA3FE03C2220492148FDF7D9F9E2
:102EF0001C2226491E484038FDF7D3F900233246EC
:102F00001B4940391C48006803F0EAFA00F06EF8EB
:102F10003C2216491648FDF7C4F9202215491448E9
:102F20004038FDF7BEF9002332461149403901E02F
:102F30001AE004E01048006803F0D2FA13E03C22E3
:102F40000A490B48FDF7ADF91B22114908484038E2
:102F5000FDF7A7F9002332460549403906480068C5
:102F600003F0BEFA00BF00BF70BD0000F50B0020EB
:102F70002C260020850B0020340B0020A8250020E3
:102F8000B1250020C10B0020DD0B0020A50B002087
:102F90006A0B002008B508490968C9084FF47A721D
:102FA000B1FBF2F14143009100BF00BF00994A1EFE
:102FB00000920029F9D108BDFC17002030B5034666
:102FC000002410E000200AE00A5C9A4206D10022A8
:102FD00002E000258D54521C032AFADB401C032812
:102FE000F2DBC91C641C082CECDB30BD10B50124DD
:102FF00004E0E0B22021FFF75FFC641C0A2CF8DB40
:10300000002010E000210BE0002300EB4004134AF5
:103010002244535400EB4004114A22445354491CA7
:103020000329F1DB401C0828ECDB002005E000212F
:103030000C4A11540C4A1154401C0A28F7DB00209A
:103040000A4908703021092000F01CF97821092074
:1030500000F018F901200649087010BDBB250020BA
:10306000D4250020A8250020B12500204F0B0020EA
:10307000690B00202DE9F04380464FF0000900263F
:10308000002445E0002740E004EB440122480844C6
:10309000C05D404538D1002525E004EB44021E49BF
:1030A0001144485D1D49FDF71BFE01280FD004EBBC
:1030B000440219491144485D1949FDF711FE0128E0
:1030C00005D004EB44011448084410F8059004EBC3
:1030D000440211491144485D1049FDF701FE0128E1
:1030E00000D1761C6D1C032DD7DB022E05D1B9F162
:1030F000000F02D04846BDE8F083032E01D1142012
:10310000F9E74FF0000900267F1C032FBCDB641C8D
:10311000082CB7DB4846EEE7BB250020B125002090
:10312000A82500202DE9F0418046002020490870A4
:10313000002439E0002534E004EB44011C48401C25
:103140000844405D60B3002610E004EB44021849D7
:10315000491C1144885D1749FDF7C2FD012804D1BF
:1031600013480078401C12490870761C032EECDBD3
:103170000F480078022810D1002609E004EB440231
:103180000B49491C1144885D3021FFF795FB761CE3
:10319000032EF3DB0120BDE8F08100200449087014
:1031A0006D1C032DC8DB641C082CC3DB3846F2E71A
:1031B000D3250020A825002070B586B0044618222B
:1031C0002D496846FDF76DF8002029E0002224E033
:1031D00000EB400328491944895CA1421CD100211D
:1031E00013E000EB4005244B2B445D5C234B1B7824
:1031F00003EB4306214B5B1C33445D54002300EB7F
:1032000040056E4635446B54491C0329E9DB1B49D4
:103210000978491C194B1970521C032AD8DB401C31
:103220001549491E09788142D0DC00201CE000EBE2
:1032300040011DF80110B1B100210DE000EB400389
:103240000D4A1A44535C0E4A127802EB42050C4AAE
:10325000521C2A445354491C0329EFDB08490978BE
:10326000491C074A1170401C0349491E09788142D4
:10327000DDDC06B070BD0000510B0020BA25002037
:10328000D32500202DE9F04F85B004460D464FF0C0
:103290000008C146C246C346142215496846FDF7D8
:1032A00000F81DF8140000EB4000124901EB80000B
:1032B000694601EB4401497850F82100064607466B
:1032C0007F1C302D04D14FF016084FF0170905E090
:1032D000782D03D14FF00A084FF00B0930780649DA
:1032E00001F80800387801F8090005B0BDE8F08F52
:1032F000786E0008340C00206A0B0020FFF7B4FA47
:1033000000BF012002F0B1F9FBE710B5FDF7BAFEEE
:1033100003F0BEFB012801D003F04CF810BD000003
:1033200000B59BB038210DA8FCF7D4FF142108A8E4
:10333000FCF7D0FF20216846FCF7CCFF01200D9060
:1033400000040F9001201090129000200E90022097
:103350001590C10316914FF4E011179100201890B9
:103360000DA8FEF749FF08B1FDF7C1FC0F2008903A
:103370000220099000200A904FF480600B900020FA
:103380000C90022108A8FEF7D7FD08B1FDF7AFFCAD
:1033900010200090002007906846FEF7C5FC08B199
:1033A000FDF7A5FC0120024908671BB000BD000025
:1033B000000042421448006840F0010012490860D1
:1033C00008464068114908400F49486008460068AF
:1033D0000F4908400C4908600846006820F4802026
:1033E00008600846406820F4FE004860084600680F
:1033F00020F0A05008604FF47F0088600020C86271
:10340000C803044908607047001002400000FFF044
:10341000FFFFF6FE08ED00E000BF00BF00222749D5
:103420002748006803F0ACF90446012C41D1234839
:10343000FFF7B8FB23490870084600780C2836D2FD
:10344000DFE800F0350A0E12161A1E22262A2E0672
:103450000B20FFF7F5FB2BE00120FFF7F1FB27E046
:103460000220FFF7EDFB23E00320FFF7E9FB1FE05D
:103470000420FFF7E5FB1BE00520FFF7E1FB17E069
:103480000620FFF7DDFB13E00720FFF7D9FB0FE075
:103490000820FFF7D5FB0BE00920FFF7D1FB07E081
:1034A0000020094908700A20FFF7CAFB00E000BFAE
:1034B00000BF012002F0D9F8B0E70000AC240020E2
:1034C000380B00203C0B0020690B002090B0002539
:1034D00000BF13480068FCF708FF06463246114952
:1034E0000F48006803F04CF90446012C14D13C212C
:1034F0000C484030FDF7E0FB00BF0A48FCF7F5FE42
:1035000086B231460748FDF7D7FB0546002DF4D1BA
:1035100040216846FCF7DEFE012002F0A6F8D8E75D
:10352000340B0020EC2500202DE9F04104460D4627
:10353000D4F8B862D4F8C072D4F8B80278B305EB06
:10354000850104F1140000EB8100806808B305EBED
:10355000850104F1140000EB8100C5EBC502816810
:1035600007F13C0000EB82008068B1FBF0F200FB49
:10357000121070B9002105EB850204F1140000EB74
:103580008200816000231A462946204600F0CEFEC4
:1035900002E00020C6F814020020BDE8F081FFE739
:1035A0000220FAE770B504460E46D4F8B852314608
:1035B000204600F06EFDC5F80C02D4F8B80248B100
:1035C000D5F80402D4F8BC12CA6805F50371904717
:1035D000002070BD0220FCE770B504460E460025B1
:1035E0008121204600F05FFC0021E162012120469C
:1035F00000F059FC0021C4F86C118221204600F033
:1036000052FC00212164D4F8B80250B1D4F8BC12A5
:1036100048688047D4F8B80201F031F90020C4F8B6
:10362000B802284670BD70B50546D5F8B842D5F841
:10363000BC0278B194F80002FF280BD094F8012264
:1036400094F80002D5F8BC128B6821469847FF20F9
:1036500084F80002002070BD01460A20088001485D
:10366000704700009C230020014643200880014849
:1036700070470000242400200146432008800148B0
:1036800070470000E02300200146432008800148E5
:1036900070470000682400202DE9F04104460F46E1
:1036A0000026207C88B94FF4007302228121204635
:1036B00000F048FD0121E1624B020222204600F0A9
:1036C00041FD0121C4F86C110FE040230222812149
:1036D000204600F037FD0121E1624023022220460E
:1036E00000F030FD0121C4F86C110823032282216F
:1036F000204600F027FD012121644FF4077001F0FE
:10370000BFF8C4F8B802D4F8B80208B901261CE022
:10371000D4F8B852D4F8BC12086880470020C5F825
:103720001402C5F81802207C40B94FF4007301213F
:103730002046D5F8042200F01DFD06E040230121BB
:103740002046D5F8042200F015FD3046BDE8F08192
:1037500070B50446D4F8B852D4F8B80298B1207CB9
:1037600040B94FF4007301212046D5F8042200F03F
:1037700001FD06E0402301212046D5F8042200F097
:10378000F9FC002070BD0220FCE70246022011B1C6
:10379000C2F8BC12002070470246D2F8B832C3F813
:1037A00004120020704710B50346D3F8B842C4F89D
:1037B0000812C4F81022002010BD2DE9FC41054676
:1037C0000C46D5F8B86200200190009000272078C0
:1037D00000F0600040B320285FD1E088E0B120789D
:1037E00000F0800060B1E2886078D5F8BC128B6888
:1037F00031469847E2883146284600F0E6F812E064
:10380000607886F80002A07986F80102E2883146E5
:10381000284600F0B9F806E06078D5F8BC1200221E
:103820008B68214698473EE0607820B10A2812D084
:103830000B282AD11FE095F89C02032805D102220B
:103840006946284600F0C1F804E02146284600F009
:103850008FF802271FE095F89C02032805D101226A
:1038600001A9284600F0B1F804E02146284600F0FE
:103870007FF802270FE095F89C02032804D0214628
:10388000284600F075F8022705E02146284600F09A
:103890006FF8022700BF00BF05E02146284600F070
:1038A00067F8022700BF00BF3846BDE8FC8170B54D
:1038B0000546D5F8B842D5F8B802A8B1D4F8140234
:1038C00080B90120C4F81402D4F810122963B4F8A6
:1038D000100283B281212846D4F8082200F026FD88
:1038E000002070BD0120FCE70220FAE770B5044615
:1038F0000D46D4F8B402294642682046904700207D
:1039000070BD70B504460D4694F89C02012804D0A1
:10391000022803D003280CD101E000BF00BF688853
:10392000012805D10020C4F8A402204600F05EF86A
:1039300004E02946204600F01BF800BF00BF70BD20
:1039400070B506460C4615462B46224600213046E9
:1039500000F010FC002070BD70B506460C46154600
:103960002B4622460021304600F0E0FC002070BDCE
:1039700070B504460D468021204600F0ABFC0021C6
:10398000204600F0A7FC70BD70B504460E461546F3
:103990000320C4F894024FF4AE700551001D055188
:1039A0002B4632460021204600F0E4FB002070BD8B
:1039B00010B504460520C4F8940200231A4619469F
:1039C000204600F0D7FB002010BD70B504460E461F
:1039D00015460220C4F89402E56125622B46324662
:1039E0000021204600F0A2FC002070BD10B5044666
:1039F0000420C4F8940200231A461946204600F019
:103A000095FC002010BD000070B505460C462DB990
:103A10002246064906A000F0DBF904E022460349ED
:103A200003A000F0D5F9014870BD0000A0310020CE
:103A300043444320436F6E666967000002461220CC
:103A400008800148704700001812002070B5054634
:103A50000C462DB92246064906A000F0B9F904E04B
:103A60002246034903A000F0B3F9014870BD0000ED
:103A7000A031002043444320496E7465726661633F
:103A800065000000024604200880014870470000DD
:103A90002C12002070B505460C462246024903A0B0
:103AA00000F096F9004870BDA031002053544D69D4
:103AB00063726F656C656374726F6E696373000027
:103AC00070B505460C462DB92246064906A000F001
:103AD0007FF904E02246034903A000F079F9014888
:103AE00070BD0000A031002053544D333220566980
:103AF000727475616C20436F6D506F7274000000BA
:103B000070B505460C461A202080FDF7F1F80148F3
:103B100070BD00003012002070B504460D46E888E4
:103B2000012804D029462046FFF722FF1EE094F822
:103B30009C02012804D0022803D0032810D109E0F8
:103B400000BF0020A060012204F108012046FFF719
:103B50003CFF0AE00122211D2046FFF736FF04E06A
:103B600029462046FFF704FF00BF00BF70BDF8B52F
:103B700004460E46002000900027002570880012A1
:103B8000082875D2DFE800F0C7040C20C7C7A5B528
:103B9000207CD4F8B0120A68694690470746C1E015
:103BA000207C40B9D4F8B402816A68468847074649
:103BB0000220787007E0D4F8B402C16A68468847EA
:103BC000074602207870ADE0B078062878D2DFE8AA
:103BD00000F00316293C5063D4F8B002406838B1B5
:103BE000207CD4F8B0124A6869469047074605E041
:103BF00031462046FFF7BCFE681CC5B267E0D4F82A
:103C0000B002806838B1207CD4F8B0128A68694666
:103C10009047074605E031462046FFF7A9FE681C9D
:103C2000C5B254E0D4F8B002C06838B1207CD4F8F2
:103C3000B012CA6869469047074605E031462046FB
:103C4000FFF796FE681CC5B241E0D4F8B0020069E7
:103C500038B1207CD4F8B0120A696946904707460B
:103C600005E031462046FFF783FE681CC5B22EE012
:103C700051E0D4F8B002406938B1207CD4F8B012D9
:103C80004A6969469047074605E031462046FFF7F6
:103C90006FFE681CC5B21AE0D4F8B002806940B16A
:103CA000207CD4F8B0128A6969469047074606E03E
:103CB00006E031462046FFF75BFE681CC5B206E011
:103CC00031462046FFF754FE681CC5B200BF00BF56
:103CD00028E0207C30B9D4F8B402416B68468847AC
:103CE000074605E031462046FFF742FE681CC5B294
:103CF00018E0207C40B9D4F8B402016B68468847CC
:103D000007460720787005E031462046FFF730FE71
:103D1000681CC5B206E031462046FFF729FE681C44
:103D2000C5B200BF00BF05B1F8BDBDF8000088B145
:103D3000F08878B1F088BDF80010884202DDBDF847
:103D4000000000E0F0880090BDF8002039462046D1
:103D5000FFF73BFEF08810B92046FFF747FE00BF93
:103D6000E2E70146002002E0421CD0B2491C0A787A
:103D7000002AF9D1704770B504460D4694F89C02AC
:103D8000012804D0022803D003281AD101E000BF83
:103D900000BFE888022804D029462046FFF7E8FD46
:103DA00014E00120E060D4F8A40218B1E06840F00B
:103DB0000200E060022204F10C012046FFF705FE3C
:103DC00004E029462046FFF7D3FD00BF00BF70BDC9
:103DD0002DE9F04104460D4617460026FCB1204669
:103DE000FFF7BFFF022101EB400038803A783046F0
:103DF000711CCEB22A5403223046711CCEB22A5412
:103E00000AE014F8012B3046711CCEB22A5400226D
:103E10003046711CCEB22A5420780028F1D1BDE87A
:103E2000F0810146002031B1012906D0022906D0D7
:103E3000032908D105E0002007E0022005E0012069
:103E400003E0022001E0022000BF00BF704770B510
:103E500004460D4616460CB9022070BDD4F8B402D3
:103E600010B10020C4F8B4020DB1C4F8B052012062
:103E700084F89C022670204600F014F90020ECE73C
:103E80002DE9F04104460D46002600272946D4F8C6
:103E9000C002FDF752FA06463046FFF7C2FF07465A
:103EA0003846BDE8F0812DE9F04104460D46002674
:103EB00000272946D4F8C002FDF70AFA0646304624
:103EC000FFF7AFFF07463846BDE8F0812DE9F04126
:103ED00004460E461746002E64D104F11405D4F8AA
:103EE0009402022848D1D5E90301884210D9D5E9C6
:103EF0000301401AE860A88982B239462046FFF7DC
:103F00002BFD00231A461946204600F033F93EE007
:103F10002969A868B0FBF1F201FB1200B8B9296960
:103F2000A868884213D3A868D4F8981288420ED2A1
:103F3000002211462046FFF70FFD0020C4F898022A
:103F400000231A461946204600F014F91FE0D4F861
:103F5000B402C06840B194F89C02032804D1D4F89C
:103F6000B402C168204688478021204600F0B2F99B
:103F70002046FFF71DFD0AE0D4F89402042802D081
:103F8000D4F8940218B98021204600F0A3F994F8DF
:103F9000A002012818D1204600F0FCF9002084F886
:103FA000A00211E0D4F8B402406950B194F89C0228
:103FB000032806D1D4F8B40231464269204690471E
:103FC00002E00220BDE8F0810020FBE72DE9F0418E
:103FD00004460E461746BEBB04F5AA75D4F89402F3
:103FE000032825D1D5E90301884210D9D5E9030179
:103FF000401AE860D5E90301884201D2E86800E090
:10400000286982B239462046FFF79AFC2FE0D4F89F
:10401000B402006940B194F89C02032804D1D4F89A
:10402000B4020169204688472046FFF7DFFC1EE006
:10403000D4F8940205281AD10020C4F89402002173
:10404000204600F047F912E0FFE7D4F8B402806997
:1040500050B194F89C02032806D1D4F8B40231463A
:1040600082692046904702E00220BDE8F0810020EE
:10407000FBE701460020704710B50446012084F894
:104080009C022179D4F8B40242682046904700206F
:1040900010BD70B504460D462946D4F8C002FDF7A0
:1040A0008AF970BD10B50446207828BB1348C0F8C3
:1040B000FC43C4F8C0024FF0A0401049086004203F
:1040C000486002210D48C1600021C16101620121E7
:1040D000C162FDF7BDFC08B1FCF709FE802107486D
:1040E000FDF79CF8402200210448FDF79CF880224F
:1040F00001210248FDF797F8002010BD802B002019
:1041000010B50246D2F8C03201F08000802809D1F3
:1041100001F07F00C0EBC00403F13C0000EB840021
:10412000807810BD01F07F00C0EBC00403F5FE7085
:1041300000EB84008078F4E70246002070470246D6
:10414000002070472DE9F04704460F4615461E46ED
:104150004FF00008C1462B4632463946D4F8C0021B
:10416000FDF734F980464046FFF75BFE814648463E
:10417000BDE8F0872DE9F04704460D4616461F4678
:104180004FF00008C1463B4632462946D4F8C002EB
:10419000FDF762F980464046FFF743FE81464846F8
:1041A000BDE8F08710B504464023002211462046A2
:1041B000FFF7C8FF01214FF4AC70015140214FF4CB
:1041C000B27001514023002280212046FFF7BAFF40
:1041D0000121A16140216162012084F89C0200203C
:1041E000C4F894026060C4F8A402D4F8B80228B1FC
:1041F0002179D4F8B402426820469047002010BDCF
:10420000014691F89C02042803D191F89D0281F89F
:104210009C020020704710B5044694F89C020328C5
:1042200008D1D4F8B402C06920B1D4F8B402C1698D
:1042300020468847002010BD0246117400207047B8
:104240002DE9F04104460D46002600272946D4F802
:10425000C002FDF711FD06463046FFF7E2FD0746B6
:104260003846BDE8F08170B504460D46294604F590
:104270002A7000F073F80120C4F8940240F2AE20D6
:10428000005BC4F8980294F8A80200F01F0020B167
:10429000012808D0022812D10BE004F52A7120462B
:1042A00000F041F913E004F52A71204600F0A8FA65
:1042B0000DE004F52A71204600F086F907E094F835
:1042C000A80200F08001204600F004F800BF00BF03
:1042D000002070BD2DE9F04104460D460026002760
:1042E0002946D4F8C002FDF7DDF806463046FFF750
:1042F00098FD07463846BDE8F08170B504460025B4
:104300000026D4F8C002FDF7DBFC05462846FFF77F
:1043100088FD0646304670BD014691F89C0281F842
:104320009D02042081F89C02002070472DE9F0478F
:1043300004460D4616461F464FF00008C1463B4650
:1043400032462946D4F8C002FDF7F0F880464046D0
:10435000FFF767FD81464846BDE8F0870A7802709E
:104360004A7842708B78CA7803EB022242800B793C
:104370004A7903EB022282808B79CA7903EB02220D
:10438000C28070470246002011B1C2F8B41200E0AA
:104390000220704701460020704770B504460D4664
:1043A000A88810BBE88800BB688880281DD2A87840
:1043B00000F07F0694F89C02032804D12946204689
:1043C000FFF7D6FA15E084F89E6231462046FFF7E3
:1043D00037FF2046FFF70AFB1EB1022084F89C023B
:1043E00007E0012084F89C0203E029462046FFF7FD
:1043F000BFFA70BD70B504460D460226D4F8B4026B
:1044000038B1D4F8B402294602682046904700B972
:104410000026304670BD000070B504460D46A878F1
:104420003649087008460078012804DD29462046F0
:10443000FFF79EFA60E094F89C02022802D003285D
:104440004FD11CE02D480078A8B12C48007860605E
:10445000032084F89C02294801782046FFF7CAFF10
:10446000022804D129462046FFF782FA70BD204673
:10447000FFF7BCFA02E02046FFF7B8FA3BE01F481E
:10448000007870B9022084F89C021C4800786060B3
:104490001A4801782046FFF729FA2046FFF7A6FAC6
:1044A0001EE0164909786068884216D021792046B6
:1044B000FFF71CFA11480078606010480178204628
:1044C000FFF798FF022804D129462046FFF750FA4B
:1044D000CCE72046FFF78AFA02E02046FFF786FA8B
:1044E00009E029462046FFF743FA044801782046B0
:1044F000FFF7FCF900BF00BF00BFB7E7021E0020B6
:1045000070B505460C466088012804D1C5F8A402A0
:104510002846FFF76BFA70BD10B504462046FFF73A
:10452000ECFE002010BD70B505460C460026207834
:1045300000F0600060B1202802D040283CD100E0AB
:1045400000BFD5F8B402214682682846904738E07B
:1045500060780A2829D2DFE800F01923281E280AEB
:104560000528140F21462846FFF701FB22E02146CB
:104570002846FFF712FF1DE021462846FFF74CFFB3
:1045800018E021462846FFF7C7FA13E021462846DF
:10459000FFF7F1FB0EE021462846FFF7B1FF09E0E7
:1045A00021462846FFF7ADF904E021462846FFF7EB
:1045B000DFF900BF00BF04E021462846FFF7D8F925
:1045C00000BF00BF304670BD2DE9F04105460E46E4
:1045D0004FF000083479307800F0600060B1202896
:1045E00002D0402871D100E000BFD5F8B4023146B6
:1045F00082682846904700E1307800F0600020286B
:1046000009D1D5F8B40231468268284690478046E1
:104610004046BDE8F081707800285ED001282FD098
:10462000032876D195F89C02022802D0032820D1D5
:1046300010E054B1802C08D021462846FFF74AFEEE
:1046400080212846FFF746FE03E031462846FFF763
:104650008FF913E0708840B93CB1802C05D0F08808
:1046600018B921462846FFF735FE2846FFF7BEF960
:1046700004E031462846FFF77BF900BF00BFB5E0F4
:1046800095F89C02022802D003281FD110E054B1F3
:10469000802C08D021462846FFF71CFE80212846A2
:1046A000FFF718FE03E031462846FFF761F912E0F4
:1046B000708848B904F07F0018B121462846FFF7FA
:1046C000DFFB2846FFF792F905E091E031462846E6
:1046D000FFF74EF900BF00BF88E095F89C02022862
:1046E00002D0032876D126E034B1802C04D03146A4
:1046F0002846FFF73DF972E004F08000802809D1D8
:1047000004F07F0000EB800105F1140000EB810054
:1047100008E066E004F07F0000EB800105F5AA7078
:1047200000EB810007460020386002223946284607
:10473000FFF74BF953E004F0800080280ED104F01D
:104740000F0000EB800105F1140000EB81004068D0
:1047500098B931462846FFF70BF940E004F00F0006
:1047600000EB800105F5AA7000EB8100406820B9DC
:1047700031462846FFF7FCF831E004F0800080283D
:1047800008D104F07F0000EB800105F1140000EB7C
:10479000810007E004F07F0000EB800105F5AA70BE
:1047A00000EB810007460CB1802C02D1002038605C
:1047B00009E021462846FFF7A3FC10B1012038602C
:1047C00001E000203860022239462846FFF7FDF854
:1047D00005E0FFE731462846FFF7CAF800BF00BFF3
:1047E00004E031462846FFF7C3F800BF00BF04E0ED
:1047F00031462846FFF7BCF800BF00BF404608E737
:1048000070B505460C460026207800F0600030B1F7
:10481000202802D040282AD100E000BF00BF95F830
:104820009C02012804D0022803D0032818D101E0FB
:1048300000BF00BF207901280DDCD5F8B402214665
:104840008268284690470646E08840B93EB9284627
:10485000FFF7CCF803E021462846FFF789F804E08B
:1048600021462846FFF784F800BF00BF04E0214638
:104870002846FFF77DF800BF00BF002070BD7047DD
:104880000146014870470000802F002070B50446A3
:104890000B4622461978587801282CD140F61C0086
:1048A00080581D7805F00F060125B540ADB22843AC
:1048B00040F61C05A85002F5106000EB411000689E
:1048C00000F40040F0BB1889C0F30A00DD7840EA2C
:1048D000854040EA815040F0805040F4004002F5AD
:1048E000106505EB41152D68284302F5106505EBB1
:1048F000411528602DE040F61C0080581D7805F019
:104900000F060125B540144E06EA0545284340F63A
:104910001C05A85002F5306000EB4110006800F45F
:10492000004078B91889C0F30A00DD7840EA854074
:1049300040F0805040F4004002F5306505EB411531
:104940002D6800E005E0284302F5306505EB4115D0
:104950002860002070BD00000000FFFF01460A46ED
:104960004FF410608058C30ADB024FF4106083508C
:1049700040F60400805840F4807340F604008350F1
:10498000002070470FB470B504460A98012817D16B
:10499000A06B20F48030A063E06811490840E0601B
:1049A000E06820F44010E0601198012803D1E0682D
:1049B00040F48010E060204600F014F805460BE05B
:1049C000E06840F04000E060204600F00BF805464B
:1049D000A06B40F48030A063284670BC5DF814FBE7
:1049E000BFFFBDFF0146002200BF501C02460F4B17
:1049F000984201D903207047086900F00040002860
:104A0000F3D00022086940F00100086100BF501C8B
:104A10000246064B984201D90320ECE7086900F0F2
:104A200001000028F3D100BFE5E70000400D0300BE
:104A300070B504460B4621461A785878012826D1CD
:104A400040F63C0040581D7805F00F060125B540A2
:104A5000ADB2A84340F63C05685040F61C004058F3
:104A60001D7805F00F060125B540ADB2A84340F60C
:104A70001C05685001F5106000EB421000681A4DEB
:104A8000284001F5106505EB4215286029E040F645
:104A90003C0040581D7805F00F060125B540134E27
:104AA00006EA0545A84340F63C05685040F61C0060
:104AB00040581D7805F00F060125B5400B4E06EA5B
:104AC0000545A84340F61C05685001F5306000EB31
:104AD00042100068064D284001F5306505EB42158F
:104AE0002860002070BD0000007833EC0000FFFF5C
:104AF0000078F3EF70B50446254640F604004059AF
:104B000020F0020140F6040041510320FCF70AF9AD
:104B1000002070BD70B50446254640F6040040599B
:104B200040F0020140F6040041510320FCF7FAF87E
:104B3000002070BD0FB4F0B50646002735460024AE
:104B400005E0002106F5827040F82410641C0F2C4B
:104B5000F7D3B06B40F40020B0630020C5F8000E1E
:104B6000D5F80008C5F800080321304600F061FCC4
:104B70001021304600F0B0FB00B10127304600F0B4
:104B800095FB00B1012700214FF401604151001D48
:104B9000415140F61C00415100242EE005F5106003
:104BA00000EB4410006800F00040B0F1004F10D15D
:104BB0003CB94FF0006105F5106000EB4410016056
:104BC0000DE04FF0904105F5106000EB44100160DE
:104BD00005E0002105F5106000EB441001600021A4
:104BE00005F5106000EB441001614FF67F3105F5CB
:104BF000106000EB44108160641C0698A042CDD880
:104C000000242EE005F5306000EB4410006800F051
:104C10000040B0F1004F10D13CB94FF0006105F5F4
:104C2000306000EB441001600DE04FF0904105F55D
:104C3000306000EB4410016005E0002105F53060B4
:104C400000EB44100160002105F5306000EB4410DA
:104C500001614FF67F3105F5306000EB4410816053
:104C6000641C0698A042CDD84FF40160405920F44E
:104C700080714FF4016041510020B0616FF08040BD
:104C80007061B06940F01000B061B0690949084333
:104C9000B0610C9818B1B06940F00800B06110988C
:104CA000012803D1B06904490843B0613846F0BC1B
:104CB0005DF814FB00383C80040000400146886821
:104CC00020F00100886000207047000070B50446A5
:104CD0000B4622461978587801287AD1586920BBAA
:104CE00002F5106000EB411000695D4D284002F5AF
:104CF000106505EB4115286102F5106000EB4110CD
:104D0000006940F4002502F5106000EB41100561D8
:104D100002F5106000EB41100069C50CED0402F5CE
:104D2000106000EB4110056137E002F5106000EB08
:104D300041100069C50CED0402F5106000EB411054
:104D4000056102F5106000EB41100069444D2840F8
:104D500002F5106505EB411528619D685869A84268
:104D600001D99868586102F5106000EB41100069A4
:104D700040F4002502F5106000EB4110056102F5DA
:104D8000106000EB411000695D69C5F3120528430E
:104D900002F5106505EB4115286102F5106000EB86
:104DA0004110006840F0044502F5106000EB41102E
:104DB00005605869F0B340F6340080581D7805F05E
:104DC0000F060125B540284340F63405A85044E0BD
:104DD000FFE702F5306000EB41100069C50CED04FF
:104DE00002F5306000EB4110056102F5306000EB28
:104DF000411000691A4D284002F5306505EB411558
:104E00002861586908B19868586102F5306000EB74
:104E10004110006940F4002502F5306000EB4110BC
:104E2000056102F5306000EB411000699D68C5F333
:104E3000120500E011E0284302F5306505EB41154D
:104E4000286102F5306000EB4110006840F0044535
:104E500002F5306000EB41100560002070BD0000DD
:104E6000FFFF07E030B502460C461146136C1248AE
:104E7000834209D94FF43060405800F00040B0F14F
:104E8000004F01D1002030BD0025C1F8105BD1F8E2
:104E9000100B40F40025C1F8105BD1F8100B40F066
:104EA0001805C1F8105BD1F8100B40F0C045C1F8EF
:104EB000105B0020E7E700000A30544F30B504468D
:104EC0000B4622461978587801281ED102F5106049
:104ED00000EB4110006820F4001502F5106000EBB3
:104EE00041100560D878032802D0D87802282AD14A
:104EF00002F5106000EB4110006840F0805502F5AB
:104F0000106000EB411005601DE002F5306000EB21
:104F10004110006820F4001502F5306000EB4110EC
:104F20000560D878032802D0D87802280BD102F582
:104F3000306000EB4110006840F0805502F53060B1
:104F400000EB41100560002030BD30B504460B4633
:104F5000224619785878012821D102F5106000EB1B
:104F60004110006800F0004060B959B102F51060CE
:104F700000EB4110006820F0804502F5106000EB66
:104F80004110056002F5106000EB4110006840F42C
:104F9000001502F5106000EB4110056020E002F5FD
:104FA000306000EB4110006800F0004060B959B17A
:104FB00002F5306000EB4110006820F0804502F5FA
:104FC000306000EB4110056002F5306000EB4110ED
:104FD000006840F4001502F5306000EB41100560F8
:104FE000002030BD2DE9F04180460E46454634781C
:104FF000707801287DD1706920BB05F5106000EB49
:1050000044100069A449084005F5106101EB441102
:10501000086105F5106000EB4410006940F40021C0
:1050200005F5106000EB4410016105F5106000EB20
:1050300044100069C10CC90405F5106000EB441070
:10504000016155E005F5106000EB44100069C10CEA
:10505000C90405F5106000EB4410016105F510600E
:1050600000EB441000698C49084005F5106101EB24
:1050700044110861B16870690844401EB0FBF1F04A
:105080008549C94301EAC04005F5106101EB4411AF
:105090000969084305F5106101EB4411086105F544
:1050A000106000EB441000697169C1F312010843FC
:1050B00005F5106101EB44110861F078012817D162
:1050C00005F5106000EB4410006920F0C04105F5C3
:1050D000106000EB4410016105F5106000EB441016
:1050E000006940F0005105F5106000EB44100161CB
:1050F00000E045E005F5106000EB4410006840F06A
:10510000044105F5106000EB44100160F0780128BF
:105110000FD0706900280BD040F634004159307828
:1051200000F00F0201209040014340F6340041514D
:10513000AEE040F60800405900F4807060B905F513
:10514000106000EB4410006840F0005105F510605D
:1051500000EB441001600BE005F5106000EB44101B
:10516000006840F0805105F5106000EB44100160CC
:10517000B08A83B232784046F16800F0D5F987E012
:1051800005F5306000EB44100069C10CC90405F559
:10519000306000EB4410016105F5306000EB441015
:1051A00000693D49084005F5306101EB4411086193
:1051B0007069D0B905F5306000EB44100069B16842
:1051C000C1F31201084305F5306101EB4411086198
:1051D00005F5306000EB4410006940F4002105F54E
:1051E000306000EB4410016124E0B168706908444C
:1051F000401EB0FBF1F087B205F5306000EB4410C3
:1052000000692549C94301EAC741084305F53061F2
:1052100001EB4411086105F5306000EB44100069B2
:10522000B1687943C1F31201084305F5306101EB20
:1052300044110861F07801281ED140F60800405959
:1052400000F4807060B905F5306000EB4410006830
:1052500040F0005105F5306000EB441001600BE0B8
:1052600005F5306000EB4410006840F0805105F512
:10527000306000EB4410016005F5306000EB441035
:10528000006840F0044105F5306000EB4410016017
:105290000020BDE8F0810000FFFF07E001468868BC
:1052A00040F00100886000207047000001460022A5
:1052B0001020086100BF501C0246064B984201D9DD
:1052C00003207047086900F010001028F3D0002078
:1052D000F7E70000400D030010B502460023202030
:1052E00040EA8110106100BF581C0346054CA042E3
:1052F00001D9032010BD106900F020002028F3D050
:105300000020F7E7400D030010B501460B4640F6BC
:105310000804E45804F00602022A01D0062A01D14A
:10532000022000E00F2010BD0146486900F0010096
:10533000704701460B4640F61800C258001DC05881
:10534000024090B2704701460B4640F61800C25822
:10535000001DC0580240100C704770B5024613463D
:105360004FF40166F45840F63406F55801F00F0684
:1053700025FA06F606F0010644EAC61403F510669F
:1053800006EB4116B66806EA040070BD10B5024689
:10539000134603F5306404EB4114A06840F614048E
:1053A000E458204010BD014648698A6910407047A2
:1053B000F0B503461E460846D71CBD08002405E08C
:1053C0004FF48057BF590760001D641CAC42F7D3EF
:1053D000F0BD70B504460D46E06820F0C040E060C6
:1053E000012D04D1E06840F00050E06007E025B9ED
:1053F000E06840F08040E06001E0012070BD3220B4
:10540000FBF790FC0020F9E710B502460B46114669
:10541000D1F8000820F4FE60C1F80008D1F80008B7
:105420004FF4FE6404EA03142043C1F8000800208E
:1054300010BD02461346D3F800080843C3F800081D
:105440000020704730B503461446022C49D12C4841
:10545000814204D32B48814201D20F2242E02948E5
:10546000814204D32848814201D20E223AE02648E4
:10547000814204D32548814201D20D2232E02348E3
:10548000814204D32248814201D20C222AE02048E2
:10549000814204D31F48814201D20B2222E01D48E1
:1054A000814204D31C48814201D20A221AE01A48E0
:1054B000814204D31948814201D2092212E01748DF
:1054C000814204D31648814201D208220AE01448DE
:1054D000814204D31348814201D2072202E006220E
:1054E00000E00922D86820F47050D860D8684FF4E2
:1054F000705505EA82252843D860002030BD0000A1
:10550000C0ACD800C0E1E4000024F40080730601C0
:10551000A0491A01002D310140A44C0100366E0152
:1055200020ABA6010048E8012DE9F0410446A4465D
:105530000D46D81C8708002609E00CF5805000EBCA
:105540000230D5F80080C0F800802D1D761CBE42C8
:10555000F3D30020BDE8F08100BFFEE702480068F9
:10556000C0F30220704700000CED00E010B50028E9
:1055700004DB0A07130E054A135406E00A07140E4B
:10558000034A00F00F031B1FD45410BD00E400E0D9
:1055900018ED00E002E008C8121F08C1002AFAD185
:1055A00070477047002001E001C1121F002AFBD1A3
:1055B000704700008AB0FBF771FDFDF7B1FEFDF703
:1055C0000DF900227C21082000F00EFF154908602B
:1055D00000224021082000F007FF134908601C2228
:1055E000124903A8FAF75DFE002103A800F04EF867
:1055F0000F4908600020012103468022CDE90010F8
:105600000CA1104801F0B6F900200090034680225A
:105610000DA10190104801F0ADF900F032F800BF83
:10562000FEE70000340B0020380B00205C6E000801
:10563000300B00205461736B5F53656E645F55538C
:1056400042000000CD3400085461736B5F506172FA
:10565000735F5553420000001934000801460020D2
:10566000842901D0CA1C1044704770B504462546F1
:105670000DB1294600E00121084600F01DFD002083
:1056800070BD10B500F074FD002010BD7FB504465C
:105690000D46606998B1A06988B1B4F90800FFF7B8
:1056A000DDFF0646D4E90510CDE9006102902B46E6
:1056B0002269D4E9001001F08FF9039013E0B4F9E6
:1056C0000800FFF7CBFF064603A8CDE90060238A58
:1056D0009AB22B46D4E9001001F04CF9012802D00F
:1056E000002004B070BD0398FBE700002DE9F041F5
:1056F00005460E461C4807681C480068001D00F05F
:10570000A3FB50B91948006890F82C10012088407C
:1057100017490968814316480160681C38B936B1D9
:1057200012480168091D134800F0D8FB1AE07C19E3
:105730000E4800684460BC4207D20C480168091D4D
:105740000D48006800F0B0FB0CE008480168091D36
:105750000A48006800F0A8FB09480068844201D2AA
:1057600007480460BDE8F081201800200C180020D4
:10577000241800208836002014180020101800205B
:105780003C18002010B5044600F0B4FB2348006824
:10579000401C224908602248006840B92048046043
:1057A0000846006801280DD100F0A0F90AE01D4864
:1057B000006838B91A480068C06AE16A884201D8AE
:1057C0001748046018480068401C1749086094F89E
:1057D0002C100120884015490968084313490860C6
:1057E000E16A01EB8101124A02EB8100211D00F008
:1057F00075FB00F0A9FB0B48006868B10848006819
:10580000C06AE16A884207D24FF0805009490860B7
:10581000BFF34F8FBFF36F8F10BD00001C18002027
:105820000C18002028180020381800202418002008
:10583000AC35002004ED00E010B516E000F05AFB96
:105840000C48C068C468201D00F0FEFA0A480068D1
:10585000401E0949086009480068401E0749086061
:1058600000F072FB204600F05EF804480068002853
:10587000E4D110BD743600201C1800201818002038
:1058800070B504460D46206C70B1216CE068084488
:10589000E0606168E068884201D32068E0602846E3
:1058A000226CE168FAF7FDFC70BD2DE9F041044679
:1058B0000F4615464FF00008A66B206C40B92068D3
:1058C00060BB606801F098F980460020606025E0C8
:1058D0007DB93946226CA068FAF7E3FC216CA06818
:1058E0000844A060D4E90110884217D32068A06062
:1058F00014E03946226CE068FAF7D3FC216CE068CA
:10590000401AE0602168E068884203D2216C606838
:10591000401AE060022D01D106B1761E701CA06312
:105920004046BDE8F08110B5044694F8510030B906
:10593000206B00F027FB204600F024FB1AE094F8CF
:105940005100012803D1204600F01CFB12E094F81E
:105950005100022801D1012000E0002050B900BF11
:10596000502080F31188BFF34F8FBFF36F8F00BFBC
:1059700000BFFEE710BD000030B54FF4805317485C
:1059800000F007042CB1C01D20F00700134C041BCD
:105990001B1B0246124C22600024114D6C60D01873
:1059A000083820F007000F4C206000240D4D2D68B2
:1059B0006C600C4D2D682C601146441A4C60094CEB
:1059C00024680C60084D4C682C60084D4C682C60B5
:1059D0004FF00044064D2C6030BD00009C36002086
:1059E0004818002050180020581800205418002093
:1059F0005C18002000BFFFF71FFF06480068012861
:105A0000F9D94FF0805004490860BFF34F8FBFF3BE
:105A10006F8FF0E7AC35002004ED00E02DE9F04198
:105A200006460D4617469846069C0DB9246000E0D0
:105A30002760E66325640121204600F005FDBDE8EE
:105A4000F0812DE9FF5F81460F469246DDE90E6B3E
:105A5000109CAAF10100216B01EB800828F00708D7
:105A600008F0070008B9012000E0002050B900BF8D
:105A7000502080F31188BFF34F8FBFF36F8F00BFAB
:105A800000BFFEE7002507E0795D04F134004155D1
:105A9000785D00B902E06D1C102DF5D300BF002128
:105AA00043200155072E00D30626E66266640020D7
:105AB000A064201D00F0F5F904F1180000F0F1F9E0
:105AC0002461C6F10700A06164620020E06484F8EC
:105AD000500049464046039A00F0A4F92060BBF10B
